{
  "contractName": "Election",
  "abi": [
    {
      "constant": true,
      "inputs": [
        {
          "name": "",
          "type": "uint256"
        }
      ],
      "name": "candidates",
      "outputs": [
        {
          "name": "id",
          "type": "uint256"
        },
        {
          "name": "name",
          "type": "string"
        },
        {
          "name": "vateCount",
          "type": "uint256"
        }
      ],
      "payable": false,
      "stateMutability": "view",
      "type": "function"
    },
    {
      "constant": true,
      "inputs": [
        {
          "name": "",
          "type": "address"
        }
      ],
      "name": "voters",
      "outputs": [
        {
          "name": "",
          "type": "bool"
        }
      ],
      "payable": false,
      "stateMutability": "view",
      "type": "function"
    },
    {
      "constant": true,
      "inputs": [],
      "name": "candidateConut",
      "outputs": [
        {
          "name": "",
          "type": "uint256"
        }
      ],
      "payable": false,
      "stateMutability": "view",
      "type": "function"
    },
    {
      "inputs": [],
      "payable": false,
      "stateMutability": "nonpayable",
      "type": "constructor"
    },
    {
      "anonymous": false,
      "inputs": [
        {
          "indexed": true,
          "name": "_candidateId",
          "type": "uint256"
        }
      ],
      "name": "votedEvent",
      "type": "event"
    },
    {
      "constant": false,
      "inputs": [
        {
          "name": "_candidateId",
          "type": "uint256"
        }
      ],
      "name": "vote",
      "outputs": [],
      "payable": false,
      "stateMutability": "nonpayable",
      "type": "function"
    },
    {
      "constant": false,
      "inputs": [],
      "name": "great",
      "outputs": [],
      "payable": false,
      "stateMutability": "nonpayable",
      "type": "function"
    }
  ],
  "bytecode": "0x608060405234801561001057600080fd5b50600060028190555061005d6040518060400160405280600b81526020017f43616e64696461746520310000000000000000000000000000000000000000008152506100a660201b60201c565b6100a16040518060400160405280600b81526020017f43616e64696461746520320000000000000000000000000000000000000000008152506100a660201b60201c565b6101ca565b604051806060016040528060016002540181526020018281526020016000815250600160006002548152602001908152602001600020600082015181600001556020820151816001019080519060200190610102929190610125565b506040820151816002015590505060026000815480929190600101919050555050565b828054600181600116156101000203166002900490600052602060002090601f016020900481019282601f1061016657805160ff1916838001178555610194565b82800160010185558215610194579182015b82811115610193578251825591602001919060010190610178565b5b5090506101a191906101a5565b5090565b6101c791905b808211156101c35760008160009055506001016101ab565b5090565b90565b6103fa806101d96000396000f3fe608060405234801561001057600080fd5b50600436106100575760003560e01c80630121b93f1461005c5780633477ee2e1461008a5780638629f97a1461013f578063a3ec138d14610149578063cd4d1a10146101a5575b600080fd5b6100886004803603602081101561007257600080fd5b81019080803590602001909291905050506101c3565b005b6100b6600480360360208110156100a057600080fd5b81019080803590602001909291905050506102e4565b6040518084815260200180602001838152602001828103825284818151815260200191508051906020019080838360005b838110156101025780820151818401526020810190506100e7565b50505050905090810190601f16801561012f5780820380516001836020036101000a031916815260200191505b5094505050505060405180910390f35b6101476103a6565b005b61018b6004803603602081101561015f57600080fd5b81019080803573ffffffffffffffffffffffffffffffffffffffff1690602001909291905050506103a8565b604051808215151515815260200191505060405180910390f35b6101ad6103c8565b6040518082815260200191505060405180910390f35b6000803373ffffffffffffffffffffffffffffffffffffffff1673ffffffffffffffffffffffffffffffffffffffff16815260200190815260200160002060009054906101000a900460ff161561021957600080fd5b60008111801561022b57506002548111155b61023457600080fd5b60016000803373ffffffffffffffffffffffffffffffffffffffff1673ffffffffffffffffffffffffffffffffffffffff16815260200190815260200160002060006101000a81548160ff0219169083151502179055506001600060018303815260200190815260200160002060020160008154809291906001019190505550807ffff3c900d938d21d0990d786e819f29b8d05c1ef587b462b939609625b684b1660405160405180910390a250565b6001602052806000526040600020600091509050806000015490806001018054600181600116156101000203166002900480601f0160208091040260200160405190810160405280929190818152602001828054600181600116156101000203166002900480156103965780601f1061036b57610100808354040283529160200191610396565b820191906000526020600020905b81548152906001019060200180831161037957829003601f168201915b5050505050908060020154905083565b565b60006020528060005260406000206000915054906101000a900460ff1681565b6002548156fea165627a7a723058204a813efba3064eb884cf820e41f37e55015a118e169df6200467dad32c16fc5b0029",
  "source": "pragma solidity ^0.5.0;\n\ncontract Election {\n  //Model a Candidate\n  struct Candidate{\n    uint id;\n    string name;\n    uint vateCount;\n  }\n  //store a candidate\n  //Fetch a candidates\n  mapping (address => bool) public voters;\n  mapping (uint => Candidate) public candidates;\n  event votedEvent(uint indexed _candidateId);\n  //store candidates count\n  uint public candidateConut;\n  constructor() public {\n    candidateConut = 0;\n    addCandidate(\"Candidate 1\");\n    addCandidate(\"Candidate 2\");\n  }\n  function addCandidate(string memory _name) private {\n    candidates[candidateConut] = Candidate(candidateConut+1,_name,0);\n    candidateConut++;\n  }\n  function vote(uint _candidateId) public {\n    require(!voters[msg.sender]);\n    require(_candidateId > 0 && _candidateId <= candidateConut);\n    voters[msg.sender] = true;\n    candidates[_candidateId-1].vateCount ++;\n    emit votedEvent(_candidateId);\n  }\n  function great() public {\n    // require(!voters[msg.sender]);\n    // require(_candidateId >= 0 && _candidateId < candidateConut);\n    // voters[msg.sender] = true;\n    //candidates[_candidateId].vateCount ++;\n    // emit votedEvent(_candidateId);\n  }\n}\n",
  "sourcePath": "/Users/hututu/Dev/NODEJS/Truffle_BlockChain/Election/contracts/Election.sol",
  "compiler": {
    "name": "solc",
    "version": "0.5.8+commit.23d335f2.Emscripten.clang"
  },
  "schemaVersion": "3.0.11",
  "updatedAt": "2019-08-28T08:16:39.389Z",
  "devdoc": {
    "methods": {}
  },
  "userdoc": {
    "methods": {}
  }
}