{
  "contractName": "Money",
  "abi": [
    {
      "constant": true,
      "inputs": [
        {
          "name": "",
          "type": "uint256"
        }
      ],
      "name": "peoples",
      "outputs": [
        {
          "name": "id",
          "type": "uint256"
        },
        {
          "name": "name",
          "type": "string"
        },
        {
          "name": "amount",
          "type": "uint256"
        }
      ],
      "payable": false,
      "stateMutability": "view",
      "type": "function"
    },
    {
      "constant": true,
      "inputs": [],
      "name": "candidateConut",
      "outputs": [
        {
          "name": "",
          "type": "uint256"
        }
      ],
      "payable": false,
      "stateMutability": "view",
      "type": "function"
    },
    {
      "inputs": [],
      "payable": false,
      "stateMutability": "nonpayable",
      "type": "constructor"
    },
    {
      "anonymous": false,
      "inputs": [
        {
          "indexed": true,
          "name": "_candidateId",
          "type": "uint256"
        }
      ],
      "name": "votedEvent",
      "type": "event"
    },
    {
      "constant": false,
      "inputs": [
        {
          "name": "_name",
          "type": "string"
        }
      ],
      "name": "addCandidate",
      "outputs": [],
      "payable": false,
      "stateMutability": "nonpayable",
      "type": "function"
    },
    {
      "constant": false,
      "inputs": [
        {
          "name": "_candidateId",
          "type": "uint256"
        }
      ],
      "name": "vote",
      "outputs": [],
      "payable": false,
      "stateMutability": "nonpayable",
      "type": "function"
    },
    {
      "constant": true,
      "inputs": [
        {
          "name": "_candidateId",
          "type": "uint256"
        }
      ],
      "name": "get",
      "outputs": [
        {
          "components": [
            {
              "name": "id",
              "type": "uint256"
            },
            {
              "name": "name",
              "type": "string"
            },
            {
              "name": "amount",
              "type": "uint256"
            }
          ],
          "name": "",
          "type": "tuple"
        }
      ],
      "payable": false,
      "stateMutability": "view",
      "type": "function"
    },
    {
      "constant": true,
      "inputs": [
        {
          "name": "_candidateId",
          "type": "uint256"
        }
      ],
      "name": "getArray",
      "outputs": [
        {
          "components": [
            {
              "name": "id",
              "type": "uint256"
            },
            {
              "name": "name",
              "type": "string"
            },
            {
              "name": "amount",
              "type": "uint256"
            }
          ],
          "name": "",
          "type": "tuple"
        }
      ],
      "payable": false,
      "stateMutability": "view",
      "type": "function"
    },
    {
      "constant": true,
      "inputs": [],
      "name": "getPeople",
      "outputs": [
        {
          "name": "",
          "type": "uint256[]"
        },
        {
          "name": "",
          "type": "string[]"
        },
        {
          "name": "",
          "type": "uint256[]"
        }
      ],
      "payable": false,
      "stateMutability": "view",
      "type": "function"
    },
    {
      "constant": true,
      "inputs": [],
      "name": "getPeoples",
      "outputs": [
        {
          "components": [
            {
              "name": "id",
              "type": "uint256"
            },
            {
              "name": "name",
              "type": "string"
            },
            {
              "name": "amount",
              "type": "uint256"
            }
          ],
          "name": "",
          "type": "tuple[]"
        }
      ],
      "payable": false,
      "stateMutability": "view",
      "type": "function"
    }
  ],
  "bytecode": "0x60806040523480156200001157600080fd5b506000600181905550620000606040518060400160405280600881526020017f486f6c6465722031000000000000000000000000000000000000000000000000815250620000ac60201b60201c565b620000a66040518060400160405280600881526020017f486f6c6465722032000000000000000000000000000000000000000000000000815250620000ac60201b60201c565b620001d8565b60405180606001604052806001548152602001828152602001600081525060008060015481526020019081526020016000206000820151816000015560208201518160010190805190602001906200010692919062000129565b506040820151816002015590505060016000815480929190600101919050555050565b828054600181600116156101000203166002900490600052602060002090601f016020900481019282601f106200016c57805160ff19168380011785556200019d565b828001600101855582156200019d579182015b828111156200019c5782518255916020019190600101906200017f565b5b509050620001ac9190620001b0565b5090565b620001d591905b80821115620001d1576000816000905550600101620001b7565b5090565b90565b610f7680620001e86000396000f3fe608060405234801561001057600080fd5b50600436106100885760003560e01c80639507d39a1161005b5780639507d39a14610117578063ab35ec6314610147578063cc91533914610177578063cd4d1a101461019557610088565b80630121b93f1461008d5780631f1094e7146100a9578063462e91ec146100db5780634f995d08146100f7575b600080fd5b6100a760048036036100a291908101906109d6565b6101b3565b005b6100c360048036036100be91908101906109d6565b610208565b6040516100d293929190610d62565b60405180910390f35b6100f560048036036100f09190810190610995565b6102ca565b005b6100ff610345565b60405161010e93929190610cd9565b60405180910390f35b610131600480360361012c91908101906109d6565b610524565b60405161013e9190610d25565b60405180910390f35b610161600480360361015c91908101906109d6565b610606565b60405161016e9190610d25565b60405180910390f35b61017f6106e8565b60405161018c9190610cb7565b60405180910390f35b61019d61083f565b6040516101aa9190610d47565b60405180910390f35b60008082815260200190815260200160002060020160008154809291906001019190505550807ffff3c900d938d21d0990d786e819f29b8d05c1ef587b462b939609625b684b1660405160405180910390a250565b6000602052806000526040600020600091509050806000015490806001018054600181600116156101000203166002900480601f0160208091040260200160405190810160405280929190818152602001828054600181600116156101000203166002900480156102ba5780601f1061028f576101008083540402835291602001916102ba565b820191906000526020600020905b81548152906001019060200180831161029d57829003601f168201915b5050505050908060020154905083565b6040518060600160405280600154815260200182815260200160008152506000806001548152602001908152602001600020600082015181600001556020820151816001019080519060200190610322929190610845565b506040820151816002015590505060016000815480929190600101919050555050565b60608060608060015460405190808252806020026020018201604052801561037c5781602001602082028038833980820191505090505b50905060606001546040519080825280602002602001820160405280156103b757816020015b60608152602001906001900390816103a25790505b50905060606001546040519080825280602002602001820160405280156103ed5781602001602082028038833980820191505090505b50905060008090505b6001548110156105125760008060008381526020019081526020016000209050806000015485838151811061042757fe5b602002602001018181525050806001018054600181600116156101000203166002900480601f0160208091040260200160405190810160405280929190818152602001828054600181600116156101000203166002900480156104cb5780601f106104a0576101008083540402835291602001916104cb565b820191906000526020600020905b8154815290600101906020018083116104ae57829003601f168201915b50505050508483815181106104dc57fe5b602002602001018190525080600201548383815181106104f857fe5b6020026020010181815250505080806001019150506103f6565b50828282955095509550505050909192565b61052c6108c5565b60008083815260200190815260200160002060405180606001604052908160008201548152602001600182018054600181600116156101000203166002900480601f0160208091040260200160405190810160405280929190818152602001828054600181600116156101000203166002900480156105ec5780601f106105c1576101008083540402835291602001916105ec565b820191906000526020600020905b8154815290600101906020018083116105cf57829003601f168201915b505050505081526020016002820154815250509050919050565b61060e6108c5565b60008083815260200190815260200160002060405180606001604052908160008201548152602001600182018054600181600116156101000203166002900480601f0160208091040260200160405190810160405280929190818152602001828054600181600116156101000203166002900480156106ce5780601f106106a3576101008083540402835291602001916106ce565b820191906000526020600020905b8154815290600101906020018083116106b157829003601f168201915b505050505081526020016002820154815250509050919050565b60608060015460405190808252806020026020018201604052801561072757816020015b6107146108e6565b81526020019060019003908161070c5790505b50905060008090505b60015481101561083757600080600083815260200190815260200160002090508060405180606001604052908160008201548152602001600182018054600181600116156101000203166002900480601f0160208091040260200160405190810160405280929190818152602001828054600181600116156101000203166002900480156107ff5780601f106107d4576101008083540402835291602001916107ff565b820191906000526020600020905b8154815290600101906020018083116107e257829003601f168201915b5050505050815260200160028201548152505083838151811061081e57fe5b6020026020010181905250508080600101915050610730565b508091505090565b60015481565b828054600181600116156101000203166002900490600052602060002090601f016020900481019282601f1061088657805160ff19168380011785556108b4565b828001600101855582156108b4579182015b828111156108b3578251825591602001919060010190610898565b5b5090506108c19190610907565b5090565b60405180606001604052806000815260200160608152602001600081525090565b60405180606001604052806000815260200160608152602001600081525090565b61092991905b8082111561092557600081600090555060010161090d565b5090565b90565b600082601f83011261093d57600080fd5b813561095061094b82610dcd565b610da0565b9150808252602083016020830185838301111561096c57600080fd5b610977838284610ed2565b50505092915050565b60008135905061098f81610f25565b92915050565b6000602082840312156109a757600080fd5b600082013567ffffffffffffffff8111156109c157600080fd5b6109cd8482850161092c565b91505092915050565b6000602082840312156109e857600080fd5b60006109f684828501610980565b91505092915050565b6000610a0b8383610b87565b905092915050565b6000610a1f8383610c49565b905092915050565b6000610a338383610c99565b60208301905092915050565b6000610a4a82610e20565b610a548185610e73565b935083602082028501610a6685610df9565b8060005b85811015610aa25784840389528151610a8385826109ff565b9450610a8e83610e4c565b925060208a01995050600181019050610a6a565b50829750879550505050505092915050565b6000610abf82610e2b565b610ac98185610e84565b935083602082028501610adb85610e06565b8060005b85811015610b175784840389528151610af88582610a13565b9450610b0383610e59565b925060208a01995050600181019050610adf565b50829750879550505050505092915050565b6000610b3482610e36565b610b3e8185610e95565b9350610b4983610e13565b8060005b83811015610b7a578151610b618882610a27565b9750610b6c83610e66565b925050600181019050610b4d565b5085935050505092915050565b6000610b9282610e41565b610b9c8185610ea6565b9350610bac818560208601610ee1565b610bb581610f14565b840191505092915050565b6000610bcb82610e41565b610bd58185610eb7565b9350610be5818560208601610ee1565b610bee81610f14565b840191505092915050565b6000606083016000830151610c116000860182610c99565b5060208301518482036020860152610c298282610b87565b9150506040830151610c3e6040860182610c99565b508091505092915050565b6000606083016000830151610c616000860182610c99565b5060208301518482036020860152610c798282610b87565b9150506040830151610c8e6040860182610c99565b508091505092915050565b610ca281610ec8565b82525050565b610cb181610ec8565b82525050565b60006020820190508181036000830152610cd18184610ab4565b905092915050565b60006060820190508181036000830152610cf38186610b29565b90508181036020830152610d078185610a3f565b90508181036040830152610d1b8184610b29565b9050949350505050565b60006020820190508181036000830152610d3f8184610bf9565b905092915050565b6000602082019050610d5c6000830184610ca8565b92915050565b6000606082019050610d776000830186610ca8565b8181036020830152610d898185610bc0565b9050610d986040830184610ca8565b949350505050565b6000604051905081810181811067ffffffffffffffff82111715610dc357600080fd5b8060405250919050565b600067ffffffffffffffff821115610de457600080fd5b601f19601f8301169050602081019050919050565b6000602082019050919050565b6000602082019050919050565b6000602082019050919050565b600081519050919050565b600081519050919050565b600081519050919050565b600081519050919050565b6000602082019050919050565b6000602082019050919050565b6000602082019050919050565b600082825260208201905092915050565b600082825260208201905092915050565b600082825260208201905092915050565b600082825260208201905092915050565b600082825260208201905092915050565b6000819050919050565b82818337600083830152505050565b60005b83811015610eff578082015181840152602081019050610ee4565b83811115610f0e576000848401525b50505050565b6000601f19601f8301169050919050565b610f2e81610ec8565b8114610f3957600080fd5b5056fea265627a7a723058203412d3a68f6ba868abb6203b2f949731f14dec7cfd6804aca2d9d0a4ded698376c6578706572696d656e74616cf50037",
  "source": "pragma solidity ^0.5.0;\npragma experimental ABIEncoderV2;\ncontract Money {\n  struct People{\n    uint id;\n    string name;\n    uint amount;\n  }\n  mapping (uint => People) public peoples;\n  event votedEvent(uint indexed _candidateId);\n  uint public candidateConut;\n\n  constructor() public {\n    candidateConut = 0;\n    addCandidate(\"Holder 1\");\n    addCandidate(\"Holder 2\");\n  }\n  function addCandidate(string memory _name) public {\n    peoples[candidateConut] = People(candidateConut,_name,0);\n    candidateConut++;\n  }\n  function vote(uint _candidateId) public {\n    peoples[_candidateId].amount ++;\n    emit votedEvent(_candidateId);\n  }\n  function get(uint _candidateId) public view returns(People memory) {\n    return peoples[_candidateId];\n  }\n  function getArray(uint _candidateId) public view returns(People memory) {\n    return peoples[_candidateId];\n  }\n  // function getPeople() public returns (uint[] memory, string[] memory,uint[] memory){\n  //   uint[]    memory id = new uint[](candidateConut);\n  //   string[]  memory name = new string[](candidateConut);\n  //   uint[]    memory amount = new uint[](candidateConut);\n  //\n  //   for (uint i = 0; i < candidateConut; i++) {\n  //       Money storage money = moneys[i];\n  //       id[i] = money.id;\n  //       name[i] = money.name;\n  //       amount[i] = money.amount;\n  //   }\n  //\n  //   return (id, name,amount);\n  // }\n\n  function getPeople() public view returns (uint[] memory, string[] memory,uint[] memory){\n      uint[]    memory id = new uint[](candidateConut);\n      string[]  memory name = new string[](candidateConut);\n      uint[]    memory amount = new uint[](candidateConut);\n      for (uint i = 0; i < candidateConut; i++) {\n          People storage people = peoples[i];\n          id[i] = people.id;\n          name[i] = people.name;\n          amount[i] = people.amount;\n      }\n\n      return (id, name,amount);\n\n  }\n  function getPeoples() public view returns (People[] memory){\n      People[]    memory id = new People[](candidateConut);\n      for (uint i = 0; i < candidateConut; i++) {\n          People storage people = peoples[i];\n          id[i] = people;\n      }\n      // for (uint i = 0; i < candidateConut; i++) {\n      //     People storage people = peoples[i];\n      //     id[i] = people.id;\n      //     name[i] = people.name;\n      //     amount[i] = people.amount;\n      // }\n\n      return id;\n\n  }\n\n}\n",
  "sourcePath": "/Users/hututu/Dev/NODEJS/Truffle_BlockChain/Money/contracts/Money.sol",
  "compiler": {
    "name": "solc",
    "version": "0.5.8+commit.23d335f2.Emscripten.clang"
  },
  "schemaVersion": "3.0.11",
  "updatedAt": "2019-08-28T10:47:17.030Z",
  "devdoc": {
    "methods": {}
  },
  "userdoc": {
    "methods": {}
  }
}